:100000000C9461000C947E000C947E000C947E0095
:100010000C947E000C947E000C947E000C947E0068
:100020000C947E000C947E000C947E000C947E0058
:100030000C947E000C947E000C9414020C947E00B0
:100040000C9460010C947E000C947E000C947E0055
:100050000C947E000C947E000C947E000C947E0028
:100060000C947E000C947E00000000002400270009
:100070002A0000000000250028002B0000000000DE
:1000800023002600290004040404040404040202DA
:100090000202020203030303030301020408102007
:1000A0004080010204081020010204081020000012
:1000B0000008000201000003040700000000000027
:1000C000000011241FBECFEFD8E0DEBFCDBF11E08E
:1000D000A0E0B1E0E4E4F7E002C005900D92A030AA
:1000E000B107D9F721E0A0E0B1E001C01D92A13431
:1000F000B207E1F70E94FA020C94A0030C940000EE
:10010000833081F028F4813099F08230A9F008958D
:100110008730A9F08830C9F08430B1F48091800034
:100120008F7D03C0809180008F7780938000089539
:1001300084B58F7784BD089584B58F7DFBCF809182
:10014000B0008F778093B00008958091B0008F7DCC
:10015000F9CFCF93DF93282F30E0F901E255FF4F1D
:100160008491F901E656FF4FD491F901EA57FF4F08
:10017000C491CC23A1F081110E948000EC2FF0E00B
:10018000EE0FFF1FE458FF4FA591B491EC91ED23C2
:1001900081E090E009F480E0DF91CF91089580E064
:1001A00090E0FACF1F93CF93DF93282F30E0F9012F
:1001B000E255FF4F8491F901E656FF4FD491F901C2
:1001C000EA57FF4FC491CC23A9F0162F81110E944A
:1001D0008000EC2FF0E0EE0FFF1FEE58FF4FA591CF
:1001E000B4918FB7F894EC91111108C0D095DE232B
:1001F000DC938FBFDF91CF911F910895DE2BF8CF55
:10020000CF93DF9390E0FC01E656FF4F24918A578D
:100210009F4FFC0184918823D1F090E0880F991FB3
:10022000FC01E859FF4FA591B491FC01EE58FF4F36
:10023000C591D49161110EC09FB7F8948C91E22FB3
:10024000E0958E238C932881E223E8839FBFDF9182
:10025000CF9108958FB7F894EC91E22BEC938FBF78
:10026000F6CF2F923F924F925F926F927F928F9232
:100270009F92AF92BF92CF92DF92EF92FF920F9335
:100280001F93CF93DF93FB010DB605820EB6068256
:10029000FC0105800DBE06800EBEDF91CF911F913F
:1002A0000F91FF90EF90DF90CF90BF90AF909F9015
:1002B0008F907F906F905F904F903F902F90089518
:1002C0001F920F920FB60F9211242F933F938F938B
:1002D0009F93AF93BF9380913D0190913E01A09178
:1002E0003F01B091400130913C0123E0230F2D37B5
:1002F00058F50196A11DB11D20933C0180933D014D
:1003000090933E01A0933F01B0934001809138014A
:1003100090913901A0913A01B0913B010196A11D44
:10032000B11D8093380190933901A0933A01B093A5
:100330003B01BF91AF919F918F913F912F910F9072
:100340000FBE0F901F90189526E8230F0296A11D4F
:10035000B11DD2CFCF93DF93F894E0910B01F091D0
:100360000C01928B818B9F012D5E3F4FA389B48935
:10037000A217B307A9F5878581110DC0A185B285A4
:100380008781908518969C938E9317970780F085A8
:10039000E02DB287A18760910B0170910C018FE075
:1003A000FB01858784E1808B8091000190910101A0
:1003B000DC01ED91FC911197F0930101E0930001B4
:1003C00020E031E03383228390930C0180930B0172
:1003D00021E01D962C930E943101DF91CF91089569
:1003E0008D919C911197948B838B1D961C921D97D8
:1003F00014968C91149740E051E0EA0148815981AC
:10040000EA019C819817C8F711965C934E938A81F4
:100410009B8113969C938E931297EC01B983A883CA
:10042000EA01BB83AA83A2CF1F920F920FB60F924D
:1004300011240F931F932F933F934F935F936F93C9
:100440007F938F939F93AF93BF93CF93DF93EF935C
:10045000FF93E0910B01F0910C018089882311F04A
:100460008150808B8091150190911601A091170108
:10047000B09118010196A11DB11D809315019093B3
:100480001601A0931701B0931801E0910D01F091AE
:100490000E0181E0ED30F80741F5409100015091E7
:1004A0000101DA0114969C91E0910B01F0910C018D
:1004B00084812089222309F44AC0891708F44AC09C
:1004C000FF91EF91DF91CF91BF91AF919F918F916C
:1004D0007F916F915F914F913F912F911F910F915C
:1004E0000F900FBE0F901F90189584819581A68163
:1004F000B7810197A109B10984839583A683B78346
:100500000DE011E0A0910D01B0910E0114964D91F6
:100510005D916D917C911797452B462B472B09F0E8
:10052000BCCF1896ED91FC91199719961C921E92CA
:100530001897CD91DC9111971B830A83D0930E01FC
:10054000C0930D011A968D919C910995DBCF981758
:1005500008F4B6CFEA01A881B981B0930101A09354
:10056000000180E091E013969C938E931297509334
:100570000C0140930B0181E08D8790898481158661
:10058000A0E0B1E091111EC00D90BC91A02D149679
:100590009C9114979817C0F7B183A08312968D9100
:1005A0009C91139793838283EC01F983E8831396DC
:1005B000FC93EE93129784E1808BBF01CA010E94E5
:1005C00031017ECF0D90BC91A02D14969C91149773
:1005D0008917C0F3B183A08312968D919C911397D4
:1005E00093838283EC01F983E8831396FC93EE9363
:1005F0001297E3CF789484B5826084BD84B581601E
:1006000084BD85B5826085BD85B5816085BD8091DD
:100610006E00816080936E00109281008091810055
:10062000826080938100809181008160809381004D
:10063000809180008160809380008091B10084600F
:100640008093B1008091B00081608093B000809170
:100650007A00846080937A0080917A00826080932F
:100660007A0080917A00816080937A0080917A008C
:10067000806880937A001092C10061E083E00E945C
:10068000000161E085E00E94000161E084E00E94D9
:10069000000160E080E00E94000160E081E00E94D3
:1006A000000160E082E00E94000160E080E00E94C2
:1006B000000180E4B82EC0E0D0E082E00E94A900F2
:1006C0006C0180E00E94A9007C0181E00E94A900E9
:1006D0008C01B0927C0080917A00806480937A00D3
:1006E00080917A0086FDFCCF80917800909179000E
:1006F00080389105D4F061E0CD2809F060E085E014
:100700000E94D20061E0EF2809F060E084E00E94DE
:10071000D20061E0012B09F060E083E00E94D2008A
:10072000209759F20E940000C8CF60E083E00E9449
:10073000D20060E085E00E94D20060E084E0EECF6D
:04074000F894FFCF5B
:00000001FF
