:100000000C9461000C947E000C947E000C947E0095
:100010000C947E000C947E000C947E000C947E0068
:100020000C947E000C947E000C947E000C947E0058
:100030000C947E000C947E000C9403060C947E00BD
:100040000C9488050C947E000C947E000C947E0029
:100050000C947E000C947E000C947E000C947E0028
:100060000C947E000C947E00000000002400270009
:100070002A0000000000250028002B0000000000DE
:1000800023002600290004040404040404040202DA
:100090000202020203030303030301020408102007
:1000A0004080010204081020010204081020000012
:1000B0000008000201000003040700000000000027
:1000C000000011241FBECFEFD8E0DEBFCDBF11E08E
:1000D000A0E0B1E0ECEEF0E102C005900D92A0339B
:1000E000B107D9F723E0A0E3B1E001C01D92A2342B
:1000F000B207E1F70E94C2060C9474080C94000049
:100100007894C201F10109950E94D20508958330C7
:1001100081F028F4813099F08230A9F00895873079
:10012000A9F08830C9F08430B1F4809180008F7DCF
:1001300003C0809180008F7780938000089584B5FC
:100140008F7784BD089584B58F7DFBCF8091B000FB
:100150008F778093B00008958091B0008F7DF9CFA4
:10016000CF93DF93282F30E0F901E255FF4F8491C0
:10017000F901E656FF4FD491F901EA57FF4FC491B8
:10018000CC23A1F081110E948700EC2FF0E0EE0F4C
:10019000FF1FE458FF4FA591B491EC91ED2381E04E
:1001A00090E009F480E0DF91CF91089580E090E045
:1001B000FACF1F93CF93DF93282F30E0F901E25558
:1001C000FF4F8491F901E656FF4FD491F901EA57A8
:1001D000FF4FC491CC23A9F0162F81110E948700F4
:1001E000EC2FF0E0EE0FFF1FEE58FF4FA591B491FA
:1001F0008FB7F894EC91111108C0D095DE23DC93F1
:100200008FBFDF91CF911F910895DE2BF8CFCF9351
:10021000DF9390E0FC01E656FF4F24918A579F4FF1
:10022000FC0184918823D1F090E0880F991FFC0194
:10023000E859FF4FA591B491FC01EE58FF4FC591CD
:10024000D49161110EC09FB7F8948C91E22FE09584
:100250008E238C932881E223E8839FBFDF91CF9187
:1002600008958FB7F894EC91E22BEC938FBFF6CF03
:10027000FFCFCF93DF93DC011D961C921D97149640
:100280002C91E6E0F3E00190F081E02D348123171A
:10029000D0F3EC01F983E883A281B381BB83AA8305
:1002A0008D939C9393838283DF91CF910895CF9315
:1002B000DF93DC011D961C921D9714962C91E6E0AD
:1002C000F3E00190F081E02D34813217D0F7EC019A
:1002D000F983E883A281B381BB83AA838D939C9326
:1002E00093838283DF91CF910895CF93DF93FC01B5
:1002F0008585843091F068F4882349F18330C9F012
:100300008FEF9FEF928B818BCF01DF91CF910C9478
:100310005701853099F0873099F7A281B3818081A8
:10032000918111969C938E93C081D181BB83AA83C6
:10033000E7CFA189B2891D921C92E2CFA189B2892F
:1003400014968C9114978F5F14968C93E6CFDF915F
:10035000CF910895CF93DF93DC01FB010190F081F1
:10036000E02D6E177F0731F0948114968C911497CD
:100370009817A0F71196FC93EE93C281D381139640
:10038000DC93CE931297B983A883B383A283DF91C2
:10039000CF9108952F923F924F925F926F927F92EA
:1003A0008F929F92AF92BF92CF92DF92EF92FF9285
:1003B0000F931F93CF93DF93FB010DB605820EB60B
:1003C0000682FC0105800DBE06800EBEDF91CF9136
:1003D0001F910F91FF90EF90DF90CF90BF90AF9063
:1003E0009F908F907F906F905F904F903F902F9055
:1003F0000895CF93DF93E0911103F0911203DC0194
:1004000052961C921E92519714963C912481231768
:1004100020F0DF91CF910C945701EC01CF010E94A5
:100420003901D0931203C093110321E02D87BC0141
:10043000CE010E94CA01DF91CF910895CF93DF933F
:10044000FC019C012E553F4F45E5E217F30709F0EB
:1004500049C0F894EC01CB57DF4FFC01E059FF4F46
:10046000FE83ED83628B718B108A178620E830E063
:10047000338B248B20E82C8332E03D871E8634E1C9
:10048000388B2C8F1B8E1A8E198E21E02F8724E239
:1004900031E03C872B8726E033E038872F83E091DB
:1004A0000F03F0911003FA87E987D087C783D093B1
:1004B0001003C0930F03FC01E856FF4F9E012D5E11
:1004C0003F4F318320832E5F3F4F3296318320830D
:1004D00033832283CE010E94F9017894CE01DF910B
:1004E000CF9108954193B1CF60E474E08CE392E042
:1004F0000E941E026FE774E08AE991E00C941E02EC
:10050000E0910603F091070380911103909112038B
:100510003481DC0114962C912317D8F4A081B18189
:10052000B0930703A093060326E033E013963C93B1
:100530002E931297F0931203E093110321E0258785
:100540000E943901BC0180911103909112030E9415
:10055000CA010895CF93DF93409111035091120384
:10056000F894A0910601B0910701EA01BB8FAA8F10
:10057000E0910001F0910101D1E0E030FD07C1F10F
:10058000EA018C8D109721F5DA0114968C93A081E5
:10059000B18180E091E0B0930101A0930001139636
:1005A0009C938E931297F0930501E0930401228DA2
:1005B000338D3093070120930601938F828FCF01F3
:1005C0000E9457010E9480027894DF91CF91089594
:1005D0002D913C911197A217B30729F0E9019C8155
:1005E000891708F4892F16960D90BC91A02DCACFBB
:1005F0001092050110920401E7CFCF93DF93E6E05C
:10060000F3E063857485DB011D968C931D9784E16F
:1006100050968C9380819181EC01A881B981B1833E
:10062000A0831396FC93EE9312979487838721E01F
:100630002D870E94CA01DF91CF910895CF92DF925A
:10064000EF92FF920F931F93CF93DF93CDB7DEB757
:100650002C970FB6F894DEBF0FBECDBF4F3F9FEF74
:1006600059076907790709F487C020911103309170
:1006700012033C872B8725E731E03A872987E091F1
:100680001303F09114030481158126813781041727
:1006900015072607370708F467C0FA83E983A281A4
:1006A000B381BC83AB839E012F5F3F4F2D933C935F
:1006B000338322834D835E836F8378870481158122
:1006C00026813781041B150B260B370B04831583FA
:1006D00026833783CC24CA94DC2C7601C09217037E
:1006E000D0921803E0921903F0921A030E94FD02BF
:1006F00089859A85892B19F1E981FA81848195810F
:10070000A681B7814D815E816F817885840F951FA9
:10071000A61FB71F84839583A683B783AB81BC8153
:100720001196FC93EE93E981FA81B383A283C09280
:100730001703D0921803E0921903F0921A03E09184
:100740001103F0911203818992892C960FB6F894C7
:10075000DEBF0FBECDBFDF91CF911F910F91FF90F4
:10076000EF90DF90CF900895401B510B620B730BFD
:100770000190F081E02D87CF0E94FD02E0CF0F9322
:100780001F93CF93DF938C01CEEFD2E08091FD02D7
:10079000811173C04091F5025091F6022091F3024D
:1007A0003091F402CA01821B930B95958795609155
:1007B000FB027091FC028617970709F43FC0E09195
:1007C000F702F091F802CF0102969093F80280931D
:1007D000F702118300838417950720F03093F80205
:1007E0002093F7028091FB029091FC020196909376
:1007F000FC028093FB02809102039091030323E0AB
:100800008230920791F0DC01ED91FC911197F09309
:100810000303E093020322E033E033832283529602
:100820001C921E9251970E9457010E94800290E0F4
:1008300080E0DF91CF911F910F910895E091110316
:10084000F0911203D183C083A0910003B091010302
:10085000B383A283ED93FC93F0930103E093000331
:1008600084E00E94FD02E0911103F091120381895E
:100870009289009709F48ACFDCCF8EEF9FEFD9CF12
:1008800010E480E00E94B000D82F81E00E94B00008
:10089000C82F82E00E94B00010937C0090917A00F3
:1008A000906490937A0090917A0096FDFCCF20910D
:1008B000780030917900D13011F0C13029F461E035
:1008C00085E00E94D900DDCFD111DBCFC111D9CF96
:1008D0008111D7CF60E085E02F3758F40E94D9000E
:1008E000F89483E090E00E94BF0378940E94AA02EB
:1008F000C8CF0E94D900F89482E090E0F4CF82E063
:10090000C82E83E0D82E9EEFA92E92E0B92E20E0CB
:10091000E22E21E0F22EF8948091FD02811142C076
:100920008091FB029091FC02009709F456C0E0917F
:10093000F902F091FA029F012E5F3F4F3093FA02C5
:100940002093F902008111814091F5025091F60245
:100950002417350740F02091F3023091F4023093D0
:10096000FA022093F90201979093FC028093FB0214
:100970008091FE029091FF0222E08E3F920781F06B
:10098000DC01ED91FC911197F093FF02E093FE02E0
:10099000B382A28252961C921E9251970E945701D6
:1009A0000E9480027894F894809011039090120332
:1009B000C0910401D0910501209709F042C09092A6
:1009C000050180920401F401828D938D90930701BB
:1009D00080930601F38EE28E6FC0E0911103F091D7
:1009E0001203D182C082A0910403B0910503B383A6
:1009F000A283ED93FC93F0930503E093040384E05A
:100A00000E94FD02E0911103F09112038189928905
:100A1000892B09F481CFC6CF69897A89EA81FB8164
:100A20008881998191838083A881B9811396FC93F1
:100A3000EE931297CE010E94AA01E989FA89C48136
:100A4000D581F40184819C81981748F58C838D852C
:100A5000863011F3873091F0811121C0EA81FB814A
:100A60008881998191838083A881B9811396FC93B1
:100A7000EE931297CE010E94570111C069897A89BD
:100A8000EA81FB818881998191838083A881B981E2
:100A90001396FC93EE931297CE010E94AA0160E098
:100AA00071E0C4010E94AA01D4015296FC92EE9218
:100AB000519786E00E94FD02789403301105A1F45D
:100AC00061E084E00E94D900F89441E350E060E0E6
:100AD00070E088E00E941E03789460E084E00E9449
:100AE000D9000E94AA0217CF0230110509F013CFD6
:100AF00061E083E00E94D900F89441E350E060E0B7
:100B000070E088E00E941E03789460E083E0E7CF05
:100B10001F920F920FB60F9211242F933F938F9332
:100B20009F93AF93BF938091EF029091F002A091B9
:100B3000F102B091F2023091EE0223E0230F2D3743
:100B400058F50196A11DB11D2093EE028093EF028E
:100B50009093F002A093F102B093F2028091EA0226
:100B60009091EB02A091EC02B091ED020196A11DD3
:100B7000B11D8093EA029093EB02A093EC02B09334
:100B8000ED02BF91AF919F918F913F912F910F9067
:100B90000FBE0F901F90189526E8230F0296A11DF7
:100BA000B11DD2CF0F931F93CF93DF93F894C091D1
:100BB0001103D09112039A8B898B8E010D5E1F4F0A
:100BC0008B899C8980179107B1F48F8581110CC0A6
:100BD000E985FA858F81988590878783AF81B8856D
:100BE0001A96FC93EE9319978FE0DF91CF911F91A6
:100BF0000F910C94FD02FC01208131813C8B2B8BE9
:100C00000E945701DDCF1F920F920FB60F92112451
:100C10000F931F932F933F934F935F936F937F9304
:100C20008F939F93AF93BF93CF93DF93EF93FF93F4
:100C3000E0911103F09112038089882311F0815013
:100C4000808B80911B0390911C03A0911D03B09198
:100C50001E030196A11DB11D80931B0390931C03DD
:100C6000A0931D03B0931E03E0911303F0911403AE
:100C700083E0E331F80751F5E0910603F0910703B3
:100C800034818091110390911203DC0114962C9110
:100C9000149750964C91442309F44AC0231708F442
:100CA0004AC0FF91EF91DF91CF91BF91AF919F919A
:100CB0008F917F916F915F914F913F912F911F91F4
:100CC0000F910F900FBE0F901F9018958481958102
:100CD000A681B7810197A109B10984839583A68371
:100CE000B78303E113E0A0911303B09114031496AA
:100CF0004D915D916D917C911797452B462B472B1C
:100D000009F0BACF1896ED91FC91199719961C929B
:100D10001E921897CD91DC9111971B830A83D09373
:100D20001403C09313031A968D919C910995DBCF00
:100D3000321708F4B6CFA081B181B0930703A09316
:100D4000060326E033E013963C932E931297F0931C
:100D50001203E093110321E02587FC012089211172
:100D60000EC00E94570124E1DC0150962C93BC0177
:100D700080911103909112030E94CA0192CF0E94A8
:100D80003901F5CFCF93DF9300D0CDB7DEB778949C
:100D900084B5826084BD84B5816084BD85B5826080
:100DA00085BD85B5816085BD80916E008160809331
:100DB0006E0010928100809181008260809381009A
:100DC00080918100816080938100809180008160AA
:100DD000809380008091B10084608093B100809105
:100DE000B00081608093B00080917A00846080932D
:100DF0007A0080917A00826080937A0080917A00F4
:100E0000816080937A0080917A00806880937A0074
:100E10001092C10060E080E00E94070160E081E084
:100E20000E94070160E082E00E94070160E080E02C
:100E30000E94070161E083E00E94070161E085E014
:100E40000E94070161E084E00E94070180E091E0D8
:100E5000909301018093000190930301809302011C
:100E6000109205011092040182EE92E09093F40238
:100E70008093F3029093FA028093F9029093F80220
:100E80008093F7028AEE92E09093F6028093F50247
:100E90001092FC021092FB021092FD028EEF92E083
:100EA0009093FF028093FE029093010380930003CE
:100EB00082E093E0909303038093020390930503F1
:100EC00080930403F89484E792E09093E102809386
:100ED000E00280913E0390913F03009721F48091BE
:100EE0000A0190910B012091DE023091DF02281758
:100EF000390740F48F3F28E0920720F49093DF02F7
:100F00008093DE02E091DE02F091DF029E01275025
:100F1000310985E5E217F30710F48193FBCFFA83DB
:100F2000E9838FEF98E09EBF8DBF20E827BD8091B9
:100F30006E00826080936E0086E093E090930703DA
:100F400080930603909309038093080310920A0389
:100F500043E153E05093140340931303509316035B
:100F6000409315034FEF5FEFBA014093170350937F
:100F700018036093190370931A0310921B031092C5
:100F80001C0310921D0310921E0320932503109240
:100F90002F0334E13093310320933D0310923C033F
:100FA00010923B0310923A0321E0209330034EE06D
:100FB00051E050932D0340932C0390932903809389
:100FC000280390932B0380932A0381E293E090936C
:100FD0000E0380930D039093100380930F0344E35B
:100FE00053E0509335034093340346E353E050936A
:100FF000370340933603509339034093380390935B
:1010000012038093110320932E037894E0E3F1E020
:101010008AE991E025E521938E179F07E1F7F8947F
:1010200088E691E0909383018093820188E391E0C8
:1010300080937A0190937901109278011092770150
:1010400080E890E090937B0180937C0181E0809325
:10105000810192E090938A0110928B0194E1909328
:101060008D0180939901109298011092970110922E
:10107000960180938C018BE291E09093890180939B
:10108000880186E093E09093850180938401E0914C
:101090000F03F0911003F0938701E09386018DE731
:1010A00091E0908787839093100380930F0380E9EA
:1010B00091E0909391018093900182E991E0909367
:1010C00093018093920190939501809394018DE711
:1010D00091E00E94F9017894E091E002F091E10240
:0C10E000309709F00995FFCFF894FFCF7E
:1010EC0000010001000000000000420380006D615F
:1010FC00696E0016433002041D040507090B000D30
:10110C000E0010006E6F6E616D650069646C650099
:00000001FF
